:03000000020800F3
:0C080000787FE4F6D8FD758115020847EA
:0B092900040801020408030C804000D9
:10088C00E4F511F512C3E5129FE5119E5023E4F532
:10089C0013F514750F0075101E0514E51470020580
:1008AC001364C8451370EC0512E51270D80511805D
:0208BC00D42244
:030003000208E30D
:1008E300C0E0C0D075D000C006C007850DA015803C
:1008F3007F647E0012088C850EA0D007D006D0D06E
:03090300D0E0320F
:03001300020906D9
:10090600C0E0C0D075D000C006C007850CA0058029
:100916007F647E0012088C850EA0D007D006D0D04A
:03092600D0E032EC
:1008BE0075A885D288E4F580E4F51574082515F839
:1008CE00E6F5907FC87E0012088C0515E515C394D9
:0508DE000440E880E386
:10080C000208BEE493A3F8E493A34003F68001F23C
:10081C0008DFF48029E493A3F85407240CC8C333ED
:10082C00C4540F4420C8834004F456800146F6DFBC
:10083C00E4800B0102040810204080900929E47E1A
:10084C00019360BCA3FF543F30E509541FFEE493B1
:10085C00A360010ECF54C025E060A840B8E493A378
:10086C00FAE493A3F8E493A3C8C582C8CAC583CAA3
:10087C00F0A3C8C582C8CAC583CADFE9DEE780BE5B
:0109340000C2
:00000001FF
